{
  "contractName": "ethritageToken",
  "abi": [
    {
      "constant": true,
      "inputs": [
        {
          "name": "interfaceId",
          "type": "bytes4"
        }
      ],
      "name": "supportsInterface",
      "outputs": [
        {
          "name": "",
          "type": "bool"
        }
      ],
      "payable": false,
      "stateMutability": "view",
      "type": "function"
    },
    {
      "constant": true,
      "inputs": [],
      "name": "name",
      "outputs": [
        {
          "name": "",
          "type": "string"
        }
      ],
      "payable": false,
      "stateMutability": "view",
      "type": "function"
    },
    {
      "constant": true,
      "inputs": [
        {
          "name": "tokenId",
          "type": "uint256"
        }
      ],
      "name": "getApproved",
      "outputs": [
        {
          "name": "",
          "type": "address"
        }
      ],
      "payable": false,
      "stateMutability": "view",
      "type": "function"
    },
    {
      "constant": false,
      "inputs": [
        {
          "name": "to",
          "type": "address"
        },
        {
          "name": "tokenId",
          "type": "uint256"
        }
      ],
      "name": "approve",
      "outputs": [],
      "payable": false,
      "stateMutability": "nonpayable",
      "type": "function"
    },
    {
      "constant": true,
      "inputs": [],
      "name": "totalSupply",
      "outputs": [
        {
          "name": "",
          "type": "uint256"
        }
      ],
      "payable": false,
      "stateMutability": "view",
      "type": "function"
    },
    {
      "constant": false,
      "inputs": [
        {
          "name": "from",
          "type": "address"
        },
        {
          "name": "to",
          "type": "address"
        },
        {
          "name": "tokenId",
          "type": "uint256"
        }
      ],
      "name": "transferFrom",
      "outputs": [],
      "payable": false,
      "stateMutability": "nonpayable",
      "type": "function"
    },
    {
      "constant": true,
      "inputs": [
        {
          "name": "owner",
          "type": "address"
        },
        {
          "name": "index",
          "type": "uint256"
        }
      ],
      "name": "tokenOfOwnerByIndex",
      "outputs": [
        {
          "name": "",
          "type": "uint256"
        }
      ],
      "payable": false,
      "stateMutability": "view",
      "type": "function"
    },
    {
      "constant": false,
      "inputs": [
        {
          "name": "to",
          "type": "address"
        },
        {
          "name": "tokenId",
          "type": "uint256"
        }
      ],
      "name": "mint",
      "outputs": [
        {
          "name": "",
          "type": "bool"
        }
      ],
      "payable": false,
      "stateMutability": "nonpayable",
      "type": "function"
    },
    {
      "constant": false,
      "inputs": [
        {
          "name": "from",
          "type": "address"
        },
        {
          "name": "to",
          "type": "address"
        },
        {
          "name": "tokenId",
          "type": "uint256"
        }
      ],
      "name": "safeTransferFrom",
      "outputs": [],
      "payable": false,
      "stateMutability": "nonpayable",
      "type": "function"
    },
    {
      "constant": true,
      "inputs": [
        {
          "name": "index",
          "type": "uint256"
        }
      ],
      "name": "tokenByIndex",
      "outputs": [
        {
          "name": "",
          "type": "uint256"
        }
      ],
      "payable": false,
      "stateMutability": "view",
      "type": "function"
    },
    {
      "constant": false,
      "inputs": [
        {
          "name": "to",
          "type": "address"
        },
        {
          "name": "tokenId",
          "type": "uint256"
        },
        {
          "name": "tokenURI",
          "type": "string"
        }
      ],
      "name": "mintWithTokenURI",
      "outputs": [
        {
          "name": "",
          "type": "bool"
        }
      ],
      "payable": false,
      "stateMutability": "nonpayable",
      "type": "function"
    },
    {
      "constant": true,
      "inputs": [
        {
          "name": "tokenId",
          "type": "uint256"
        }
      ],
      "name": "ownerOf",
      "outputs": [
        {
          "name": "",
          "type": "address"
        }
      ],
      "payable": false,
      "stateMutability": "view",
      "type": "function"
    },
    {
      "constant": true,
      "inputs": [
        {
          "name": "owner",
          "type": "address"
        }
      ],
      "name": "balanceOf",
      "outputs": [
        {
          "name": "",
          "type": "uint256"
        }
      ],
      "payable": false,
      "stateMutability": "view",
      "type": "function"
    },
    {
      "constant": true,
      "inputs": [],
      "name": "symbol",
      "outputs": [
        {
          "name": "",
          "type": "string"
        }
      ],
      "payable": false,
      "stateMutability": "view",
      "type": "function"
    },
    {
      "constant": false,
      "inputs": [
        {
          "name": "account",
          "type": "address"
        }
      ],
      "name": "addMinter",
      "outputs": [],
      "payable": false,
      "stateMutability": "nonpayable",
      "type": "function"
    },
    {
      "constant": false,
      "inputs": [],
      "name": "renounceMinter",
      "outputs": [],
      "payable": false,
      "stateMutability": "nonpayable",
      "type": "function"
    },
    {
      "constant": false,
      "inputs": [
        {
          "name": "to",
          "type": "address"
        },
        {
          "name": "approved",
          "type": "bool"
        }
      ],
      "name": "setApprovalForAll",
      "outputs": [],
      "payable": false,
      "stateMutability": "nonpayable",
      "type": "function"
    },
    {
      "constant": true,
      "inputs": [
        {
          "name": "account",
          "type": "address"
        }
      ],
      "name": "isMinter",
      "outputs": [
        {
          "name": "",
          "type": "bool"
        }
      ],
      "payable": false,
      "stateMutability": "view",
      "type": "function"
    },
    {
      "constant": false,
      "inputs": [
        {
          "name": "from",
          "type": "address"
        },
        {
          "name": "to",
          "type": "address"
        },
        {
          "name": "tokenId",
          "type": "uint256"
        },
        {
          "name": "_data",
          "type": "bytes"
        }
      ],
      "name": "safeTransferFrom",
      "outputs": [],
      "payable": false,
      "stateMutability": "nonpayable",
      "type": "function"
    },
    {
      "constant": true,
      "inputs": [
        {
          "name": "tokenId",
          "type": "uint256"
        }
      ],
      "name": "tokenURI",
      "outputs": [
        {
          "name": "",
          "type": "string"
        }
      ],
      "payable": false,
      "stateMutability": "view",
      "type": "function"
    },
    {
      "constant": true,
      "inputs": [
        {
          "name": "owner",
          "type": "address"
        },
        {
          "name": "operator",
          "type": "address"
        }
      ],
      "name": "isApprovedForAll",
      "outputs": [
        {
          "name": "",
          "type": "bool"
        }
      ],
      "payable": false,
      "stateMutability": "view",
      "type": "function"
    },
    {
      "inputs": [
        {
          "name": "name",
          "type": "string"
        },
        {
          "name": "symbol",
          "type": "string"
        }
      ],
      "payable": false,
      "stateMutability": "nonpayable",
      "type": "constructor"
    },
    {
      "anonymous": false,
      "inputs": [
        {
          "indexed": true,
          "name": "account",
          "type": "address"
        }
      ],
      "name": "MinterAdded",
      "type": "event"
    },
    {
      "anonymous": false,
      "inputs": [
        {
          "indexed": true,
          "name": "account",
          "type": "address"
        }
      ],
      "name": "MinterRemoved",
      "type": "event"
    },
    {
      "anonymous": false,
      "inputs": [
        {
          "indexed": true,
          "name": "from",
          "type": "address"
        },
        {
          "indexed": true,
          "name": "to",
          "type": "address"
        },
        {
          "indexed": true,
          "name": "tokenId",
          "type": "uint256"
        }
      ],
      "name": "Transfer",
      "type": "event"
    },
    {
      "anonymous": false,
      "inputs": [
        {
          "indexed": true,
          "name": "owner",
          "type": "address"
        },
        {
          "indexed": true,
          "name": "approved",
          "type": "address"
        },
        {
          "indexed": true,
          "name": "tokenId",
          "type": "uint256"
        }
      ],
      "name": "Approval",
      "type": "event"
    },
    {
      "anonymous": false,
      "inputs": [
        {
          "indexed": true,
          "name": "owner",
          "type": "address"
        },
        {
          "indexed": true,
          "name": "operator",
          "type": "address"
        },
        {
          "indexed": false,
          "name": "approved",
          "type": "bool"
        }
      ],
      "name": "ApprovalForAll",
      "type": "event"
    }
  ],
  "bytecode": "0x60806040523480156200001157600080fd5b50604051620016823803806200168283398101604052805160208201519082019101818181816200006b7f01ffc9a70000000000000000000000000000000000000000000000000000000064010000000062000159810204565b6200009f7f80ac58cd0000000000000000000000000000000000000000000000000000000064010000000062000159810204565b620000d37f780e9d630000000000000000000000000000000000000000000000000000000064010000000062000159810204565b8151620000e8906009906020850190620002ab565b508051620000fe90600a906020840190620002ab565b50620001337f5b5e139f0000000000000000000000000000000000000000000000000000000064010000000062000159810204565b505050506200015133620001c6640100000000026401000000009004565b505062000350565b7fffffffff0000000000000000000000000000000000000000000000000000000080821614156200018957600080fd5b7fffffffff00000000000000000000000000000000000000000000000000000000166000908152602081905260409020805460ff19166001179055565b620001e1600c826401000000006200117f6200021882021704565b604051600160a060020a038216907f6ae172837ea30b801fbfcdd4108aa1d5bf8ff775444fd70256b44e6bf3dfc3f690600090a250565b600160a060020a03811615156200022e57600080fd5b62000243828264010000000062000273810204565b156200024e57600080fd5b600160a060020a0316600090815260209190915260409020805460ff19166001179055565b6000600160a060020a03821615156200028b57600080fd5b50600160a060020a03166000908152602091909152604090205460ff1690565b828054600181600116156101000203166002900490600052602060002090601f016020900481019282601f10620002ee57805160ff19168380011785556200031e565b828001600101855582156200031e579182015b828111156200031e57825182559160200191906001019062000301565b506200032c92915062000330565b5090565b6200034d91905b808211156200032c576000815560010162000337565b90565b61132280620003606000396000f30060806040526004361061011c5763ffffffff7c010000000000000000000000000000000000000000000000000000000060003504166301ffc9a7811461012157806306fdde031461016c578063081812fc146101f6578063095ea7b31461022a57806318160ddd1461025057806323b872dd146102775780632f745c59146102a157806340c10f19146102c557806342842e0e146102e95780634f6ccce71461031357806350bb4e7f1461032b5780636352211e1461039457806370a08231146103ac57806395d89b41146103cd578063983b2d56146103e25780639865027514610403578063a22cb46514610418578063aa271e1a1461043e578063b88d4fde1461045f578063c87b56dd146104ce578063e985e9c5146104e6575b600080fd5b34801561012d57600080fd5b506101587bffffffffffffffffffffffffffffffffffffffffffffffffffffffff196004351661050d565b604080519115158252519081900360200190f35b34801561017857600080fd5b50610181610541565b6040805160208082528351818301528351919283929083019185019080838360005b838110156101bb5781810151838201526020016101a3565b50505050905090810190601f1680156101e85780820380516001836020036101000a031916815260200191505b509250505060405180910390f35b34801561020257600080fd5b5061020e6004356105d8565b60408051600160a060020a039092168252519081900360200190f35b34801561023657600080fd5b5061024e600160a060020a036004351660243561060a565b005b34801561025c57600080fd5b506102656106c0565b60408051918252519081900360200190f35b34801561028357600080fd5b5061024e600160a060020a03600435811690602435166044356106c6565b3480156102ad57600080fd5b50610265600160a060020a0360043516602435610754565b3480156102d157600080fd5b50610158600160a060020a03600435166024356107a1565b3480156102f557600080fd5b5061024e600160a060020a03600435811690602435166044356107ca565b34801561031f57600080fd5b506102656004356107eb565b34801561033757600080fd5b50604080516020600460443581810135601f8101849004840285018401909552848452610158948235600160a060020a03169460248035953695946064949201919081908401838280828437509497506108209650505050505050565b3480156103a057600080fd5b5061020e600435610854565b3480156103b857600080fd5b50610265600160a060020a036004351661087e565b3480156103d957600080fd5b506101816108b1565b3480156103ee57600080fd5b5061024e600160a060020a0360043516610912565b34801561040f57600080fd5b5061024e610932565b34801561042457600080fd5b5061024e600160a060020a0360043516602435151561093d565b34801561044a57600080fd5b50610158600160a060020a03600435166109c1565b34801561046b57600080fd5b50604080516020601f60643560048181013592830184900484028501840190955281845261024e94600160a060020a0381358116956024803590921695604435953695608494019181908401838280828437509497506109d49650505050505050565b3480156104da57600080fd5b506101816004356109fc565b3480156104f257600080fd5b50610158600160a060020a0360043581169060243516610ab1565b7bffffffffffffffffffffffffffffffffffffffffffffffffffffffff191660009081526020819052604090205460ff1690565b60098054604080516020601f60026000196101006001881615020190951694909404938401819004810282018101909252828152606093909290918301828280156105cd5780601f106105a2576101008083540402835291602001916105cd565b820191906000526020600020905b8154815290600101906020018083116105b057829003601f168201915b505050505090505b90565b60006105e382610adf565b15156105ee57600080fd5b50600090815260026020526040902054600160a060020a031690565b600061061582610854565b9050600160a060020a03838116908216141561063057600080fd5b33600160a060020a038216148061064c575061064c8133610ab1565b151561065757600080fd5b600082815260026020526040808220805473ffffffffffffffffffffffffffffffffffffffff1916600160a060020a0387811691821790925591518593918516917f8c5be1e5ebec7d5bd14f71427d1e84f3dd0314c0f7b2291e5b200ac8c7c3b92591a4505050565b60075490565b6106d03382610afc565b15156106db57600080fd5b600160a060020a03821615156106f057600080fd5b6106fa8382610b5b565b6107048382610bcc565b61070e8282610cd3565b8082600160a060020a031684600160a060020a03167fddf252ad1be2c89b69c2b068fc378daa952ba7f163c4a11628f55a4df523b3ef60405160405180910390a4505050565b600061075f8361087e565b821061076a57600080fd5b600160a060020a038316600090815260056020526040902080548390811061078e57fe5b9060005260206000200154905092915050565b60006107ac336109c1565b15156107b757600080fd5b6107c18383610d1c565b50600192915050565b6107e683838360206040519081016040528060008152506109d4565b505050565b60006107f56106c0565b821061080057600080fd5b600780548390811061080e57fe5b90600052602060002001549050919050565b600061082b336109c1565b151561083657600080fd5b6108408484610d1c565b61084a8383610d6b565b5060019392505050565b600081815260016020526040812054600160a060020a031680151561087857600080fd5b92915050565b6000600160a060020a038216151561089557600080fd5b50600160a060020a031660009081526003602052604090205490565b600a8054604080516020601f60026000196101006001881615020190951694909404938401819004810282018101909252828152606093909290918301828280156105cd5780601f106105a2576101008083540402835291602001916105cd565b61091b336109c1565b151561092657600080fd5b61092f81610d9e565b50565b61093b33610de6565b565b600160a060020a03821633141561095357600080fd5b336000818152600460209081526040808320600160a060020a03871680855290835292819020805460ff1916861515908117909155815190815290519293927f17307eab39ab6107e8899845ad3d59bd9653f200f220920489ca2b5937696c31929181900390910190a35050565b6000610878600c8363ffffffff610e2e16565b6109df8484846106c6565b6109eb84848484610e65565b15156109f657600080fd5b50505050565b6060610a0782610adf565b1515610a1257600080fd5b6000828152600b602090815260409182902080548351601f600260001961010060018616150201909316929092049182018490048402810184019094528084529091830182828015610aa55780601f10610a7a57610100808354040283529160200191610aa5565b820191906000526020600020905b815481529060010190602001808311610a8857829003601f168201915b50505050509050919050565b600160a060020a03918216600090815260046020908152604080832093909416825291909152205460ff1690565b600090815260016020526040902054600160a060020a0316151590565b600080610b0883610854565b905080600160a060020a031684600160a060020a03161480610b43575083600160a060020a0316610b38846105d8565b600160a060020a0316145b80610b535750610b538185610ab1565b949350505050565b81600160a060020a0316610b6e82610854565b600160a060020a031614610b8157600080fd5b600081815260026020526040902054600160a060020a031615610bc8576000818152600260205260409020805473ffffffffffffffffffffffffffffffffffffffff191690555b5050565b6000806000610bdb8585610fe7565b600084815260066020908152604080832054600160a060020a0389168452600590925290912054909350610c1690600163ffffffff61107d16565b600160a060020a038616600090815260056020526040902080549193509083908110610c3e57fe5b90600052602060002001549050806005600087600160a060020a0316600160a060020a0316815260200190815260200160002084815481101515610c7e57fe5b6000918252602080832090910192909255600160a060020a0387168152600590915260409020805490610cb590600019830161123a565b50600093845260066020526040808520859055908452909220555050565b6000610cdf8383611094565b50600160a060020a039091166000908152600560209081526040808320805460018101825590845282842081018590559383526006909152902055565b610d268282611124565b600780546000838152600860205260408120829055600182018355919091527fa66cc928b5edb82af9bd49922954155ab7b0942694bea4ce44661d9a8736c688015550565b610d7482610adf565b1515610d7f57600080fd5b6000828152600b6020908152604090912082516107e69284019061125e565b610daf600c8263ffffffff61117f16565b604051600160a060020a038216907f6ae172837ea30b801fbfcdd4108aa1d5bf8ff775444fd70256b44e6bf3dfc3f690600090a250565b610df7600c8263ffffffff6111cd16565b604051600160a060020a038216907fe94479a9f7e1952cc78f2d6baab678adc1b772d936c6583def489e524cb6669290600090a250565b6000600160a060020a0382161515610e4557600080fd5b50600160a060020a03166000908152602091909152604090205460ff1690565b600080610e7a85600160a060020a0316611219565b1515610e895760019150610fde565b6040517f150b7a020000000000000000000000000000000000000000000000000000000081523360048201818152600160a060020a03898116602485015260448401889052608060648501908152875160848601528751918a169463150b7a0294938c938b938b93909160a490910190602085019080838360005b83811015610f1c578181015183820152602001610f04565b50505050905090810190601f168015610f495780820380516001836020036101000a031916815260200191505b5095505050505050602060405180830381600087803b158015610f6b57600080fd5b505af1158015610f7f573d6000803e3d6000fd5b505050506040513d6020811015610f9557600080fd5b50517bffffffffffffffffffffffffffffffffffffffffffffffffffffffff1981167f150b7a020000000000000000000000000000000000000000000000000000000014925090505b50949350505050565b81600160a060020a0316610ffa82610854565b600160a060020a03161461100d57600080fd5b600160a060020a03821660009081526003602052604090205461103790600163ffffffff61107d16565b600160a060020a03909216600090815260036020908152604080832094909455918152600190915220805473ffffffffffffffffffffffffffffffffffffffff19169055565b6000808383111561108d57600080fd5b5050900390565b600081815260016020526040902054600160a060020a0316156110b657600080fd5b6000818152600160208181526040808420805473ffffffffffffffffffffffffffffffffffffffff1916600160a060020a038816908117909155845260039091529091205461110491611221565b600160a060020a0390921660009081526003602052604090209190915550565b600160a060020a038216151561113957600080fd5b6111438282610cd3565b6040518190600160a060020a038416906000907fddf252ad1be2c89b69c2b068fc378daa952ba7f163c4a11628f55a4df523b3ef908290a45050565b600160a060020a038116151561119457600080fd5b61119e8282610e2e565b156111a857600080fd5b600160a060020a0316600090815260209190915260409020805460ff19166001179055565b600160a060020a03811615156111e257600080fd5b6111ec8282610e2e565b15156111f757600080fd5b600160a060020a0316600090815260209190915260409020805460ff19169055565b6000903b1190565b60008282018381101561123357600080fd5b9392505050565b8154818355818111156107e6576000838152602090206107e69181019083016112dc565b828054600181600116156101000203166002900490600052602060002090601f016020900481019282601f1061129f57805160ff19168380011785556112cc565b828001600101855582156112cc579182015b828111156112cc5782518255916020019190600101906112b1565b506112d89291506112dc565b5090565b6105d591905b808211156112d857600081556001016112e25600a165627a7a72305820576a34d8a5a4812ca5f43ee99116626c142b493e5df12700828505cf2bed2fbd0029",
  "source": "pragma solidity ^0.4.24;\n\n\nimport \"/Users/dennisonbertram/Documents/ethritage/node_modules/openzeppelin-solidity/contracts/token/ERC721/ERC721Full.sol\";\nimport \"/Users/dennisonbertram/Documents/ethritage/node_modules/openzeppelin-solidity/contracts/token/ERC721/ERC721Mintable.sol\";\nimport \"/Users/dennisonbertram/Documents/ethritage/node_modules/openzeppelin-solidity/contracts/token/ERC721/ERC721MetadataMintable.sol\";\n\n///Users/dennisonbertram/Documents/ethritage/node_modules/openzeppelin-solidity/contracts/token/ERC721/ERC721Full.sol\n// node_modules/openzeppelin-solidity\n// /Users/dennisonbertram/Documents/ethritage/node_modules/openzeppelin-solidity\n// /Users/dennisonbertram/Documents/ethritage/contracts/ethritageToken.sol\n\ncontract ethritageToken is ERC721Full, ERC721MetadataMintable, ERC721Mintable {\n    \n    constructor(string name, string symbol) ERC721Full(name, symbol)  public {\n\n    }\n\n}",
  "sourcePath": "/Users/dennisonbertram/Documents/ethritage/contracts/ethritageToken.sol",
  "compiler": {
    "name": "solc",
    "version": "0.4.24+commit.e67f0147.Emscripten.clang"
  },
  "schemaVersion": "2.0.1",
  "updatedAt": "2018-11-16T22:40:41.213Z"
}